{
  "contractName": "DisasterDonate",
  "abi": [
    {
      "inputs": [],
      "stateMutability": "nonpayable",
      "type": "constructor"
    },
    {
      "inputs": [],
      "name": "totalDonations",
      "outputs": [
        {
          "internalType": "uint256",
          "name": "",
          "type": "uint256"
        }
      ],
      "stateMutability": "view",
      "type": "function"
    },
    {
      "inputs": [],
      "name": "donate",
      "outputs": [],
      "stateMutability": "payable",
      "type": "function"
    },
    {
      "inputs": [
        {
          "internalType": "address payable",
          "name": "recipient",
          "type": "address"
        },
        {
          "internalType": "uint256",
          "name": "amount",
          "type": "uint256"
        }
      ],
      "name": "sendDonation",
      "outputs": [],
      "stateMutability": "nonpayable",
      "type": "function"
    },
    {
      "inputs": [],
      "name": "getBalance",
      "outputs": [
        {
          "internalType": "uint256",
          "name": "",
          "type": "uint256"
        }
      ],
      "stateMutability": "view",
      "type": "function"
    }
  ],
  "bytecode": "0x608060405234801561000f575f80fd5b505f8081905550610535806100235f395ff3fe60806040526004361061003e575f3560e01c806312065fe014610042578063cd4646cb1461006c578063de2ed89314610094578063ed88c68e146100be575b5f80fd5b34801561004d575f80fd5b506100566100c8565b6040516100639190610237565b60405180910390f35b348015610077575f80fd5b50610092600480360381019061008d91906102d8565b6100cf565b005b34801561009f575f80fd5b506100a86101bf565b6040516100b59190610237565b60405180910390f35b6100c66101c4565b005b5f47905090565b80471015610112576040517f08c379a000000000000000000000000000000000000000000000000000000000815260040161010990610370565b60405180910390fd5b5f8273ffffffffffffffffffffffffffffffffffffffff1682604051610137906103bb565b5f6040518083038185875af1925050503d805f8114610171576040519150601f19603f3d011682016040523d82523d5f602084013e610176565b606091505b50509050806101ba576040517f08c379a00000000000000000000000000000000000000000000000000000000081526004016101b190610419565b60405180910390fd5b505050565b5f5481565b5f3411610206576040517f08c379a00000000000000000000000000000000000000000000000000000000081526004016101fd90610481565b60405180910390fd5b345f8082825461021691906104cc565b92505081905550565b5f819050919050565b6102318161021f565b82525050565b5f60208201905061024a5f830184610228565b92915050565b5f80fd5b5f73ffffffffffffffffffffffffffffffffffffffff82169050919050565b5f61027d82610254565b9050919050565b61028d81610273565b8114610297575f80fd5b50565b5f813590506102a881610284565b92915050565b6102b78161021f565b81146102c1575f80fd5b50565b5f813590506102d2816102ae565b92915050565b5f80604083850312156102ee576102ed610250565b5b5f6102fb8582860161029a565b925050602061030c858286016102c4565b9150509250929050565b5f82825260208201905092915050565b7f496e73756666696369656e742062616c616e636520696e20636f6e74726163745f82015250565b5f61035a602083610316565b915061036582610326565b602082019050919050565b5f6020820190508181035f8301526103878161034e565b9050919050565b5f81905092915050565b50565b5f6103a65f8361038e565b91506103b182610398565b5f82019050919050565b5f6103c58261039b565b9150819050919050565b7f4661696c656420746f2073656e642045746865720000000000000000000000005f82015250565b5f610403601483610316565b915061040e826103cf565b602082019050919050565b5f6020820190508181035f830152610430816103f7565b9050919050565b7f446f6e6174696f6e206d757374206265206d6f7265207468616e2030000000005f82015250565b5f61046b601c83610316565b915061047682610437565b602082019050919050565b5f6020820190508181035f8301526104988161045f565b9050919050565b7f4e487b71000000000000000000000000000000000000000000000000000000005f52601160045260245ffd5b5f6104d68261021f565b91506104e18361021f565b92508282019050808211156104f9576104f861049f565b5b9291505056fea264697066735822122042475852891851e5ac4c1407f38436c10c822096e167a59c221b60445d274d9064736f6c63430008140033",
  "immutableReferences": {},
  "source": "// SPDX-License-Identifier: MIT\r\npragma solidity >=0.7.0 <0.9.0;\r\n\r\ncontract DisasterDonate {\r\n    // \r\n    uint256 public totalDonations;\r\n\r\n    // \r\n    constructor() {\r\n        totalDonations = 0;\r\n    }\r\n\r\n    // \r\n    function donate() public payable {\r\n        require(msg.value > 0, \"Donation must be more than 0\");\r\n\r\n        // \r\n        totalDonations += msg.value;\r\n    }\r\n\r\n    // \r\n    function sendDonation(address payable recipient, uint256 amount) public {\r\n        require(address(this).balance >= amount, \"Insufficient balance in contract\");\r\n        (bool sent,) = recipient.call{value: amount}(\"\");\r\n        require(sent, \"Failed to send Ether\");\r\n    }\r\n\r\n    // \r\n    function getBalance() public view returns (uint256) {\r\n        return address(this).balance;\r\n    }\r\n}\r\n",
  "sourcePath": "C:\\Users\\219to\\MyProgram\\Mercari-CharityChain\\blockchain\\SmartContract\\contracts\\DisasterDonate.sol",
  "compiler": {
    "name": "solc",
    "version": "0.8.20+commit.a1b79de6.Emscripten.clang"
  },
  "schemaVersion": "3.4.16",
  "updatedAt": "2023-12-07T07:19:47.779Z",
  "devdoc": {
    "kind": "dev",
    "methods": {},
    "version": 1
  },
  "userdoc": {
    "kind": "user",
    "methods": {},
    "version": 1
  }
}